:020000040800F2
:10000000780700204D020008B11E0008F11C00080E
:10001000AD1E000877050008911F000800000000D1
:10002000000000000000000000000000B71E0008F3
:100030008D05000800000000B51E0008B91E00086C
:1000400067020008670200086702000867020008EC
:1000500067020008670200086702000867020008DC
:100060008F050008670200086702000867020008A1
:1000700067020008670200086702000867020008BC
:1000800067020008670200086702000867020008AC
:100090007D05000867020008670200086702000883
:1000A000670200086702000867020008670200088C
:1000B000670200086702000867020008670200087C
:1000C000670200086702000867020008670200086C
:1000D000670200086702000867020008670200085C
:1000E000670200086702000867020008670200084C
:1000F000670200086702000867020008670200083C
:10010000670200086702000867020008670200082B
:10011000670200086702000867020008670200081B
:10012000670200086702000867020008670200080B
:1001300067020008670200086702000867020008FB
:1001400067020008670200086702000867020008EB
:1001500067020008670200086702000867020008DB
:1001600067020008670200086702000867020008CB
:10017000670200086702000867020008000000002C
:1001800067020008670200086702000867020008AB
:10019000670200086702000867020008670200089B
:1001A00000000000000000006702000800F002F8F4
:1001B00000F03CF80AA090E8000C82448344AAF1C5
:1001C0000107DA4501D100F031F8AFF2090EBAE8C3
:1001D0000F0013F0010F18BFFB1A43F0010318477B
:1001E000141F0000341F0000103A24BF78C878C1E3
:1001F000FAD8520724BF30C830C144BF04680C602D
:10020000704700000023002400250026103A28BF74
:1002100078C1FBD8520728BF30C148BF0B60704778
:100220001FB501F055FF1FBD10B510BD00F03AF924
:100230001146FFF7F5FF01F041FF00F058F903B454
:10024000FFF7F2FF03BC00F01FF9000009488047E8
:1002500009480047FEE7FEE7FEE7FEE7FEE7FEE7A8
:10026000FEE7FEE7FEE7FEE704480549054A064BC0
:10027000704700007D1F0008AD01000878010020D4
:1002800078070020780300207803002053EA020C4E
:1002900000F069802DE9F04B4FF00006002B1FBFE6
:1002A000B3FA83F503FA05F424FA05F65E4012BFAB
:1002B0001643B2FA82F502FA05F4C5F120051EBF15
:1002C00022FA05FC44EA0C04203556EA044C4FEAB5
:1002D000144418BF641C4FF000084FF0000990420E
:1002E00071EB030C39D3002919BFB1FA81F701FA78
:1002F00007F6B0FA80F700FA07F6C7F120071EBF2D
:1003000020FA07FC46EA0C062037B6FBF4FCA7EB04
:100310000507103F07F01F0BCBF120060CFA0BFB73
:100320002CFA06F644BFB3460026202FA4BF5E4633
:100330004FF0000B5BEA060C08BF4FF0010B19EB06
:100340000B09ABFB027C48EB0608C01B06FB02CC8A
:100350000BFB03CC71EB0C01C1E70B460246414697
:100360004846BDE8F08B13B54FF000004FF0000198
:10037000AFF30080BDE81C40704700000EB5054695
:1003800014460E4613A000F06EF8284600F06BF8F5
:1003900016A000F068F8304600F065F815A000F0EF
:1003A00062F800218DF80B100A210DF10A008DF87A
:1003B0000A1008E094FBF1F201FB124294FBF1F405
:1003C000303200F8012D002CF4DC00F04CF800F085
:1003D0003FF800002A2A2A20617373657274696FDE
:1003E0006E206661696C65643A2000002C206669A5
:1003F0006C6520002C206C696E6520004FF00002B7
:1004000000B5134694469646203922BFA0E80C500A
:10041000A0E80C50B1F12001BFF4F7AF090728BFE5
:10042000A0E80C5048BF0CC05DF804EB890028BF61
:1004300040F8042B08BF704748BF20F8022B11F08A
:10044000804F18BF00F8012B704770477047704706
:1004500010B5002000F01EF8FFF7E6FEBDE81040E2
:10046000012000F011B810B5044602E0641C00F051
:1004700004F820780028F9D110BD08B569468DF838
:1004800000000320ABBE08BD01491820ABBEFEE74B
:100490002600020010B500F039F8BDE8104000F069
:1004A0002FB87047754600F049F8AE46050069461A
:1004B000534620F00700854618B020B5FFF7D4FE5C
:1004C000BDE820404FF000064FF000074FF0000855
:1004D0004FF0000B21F00701AC46ACE8C009ACE8D6
:1004E000C009ACE8C009ACE8C0098D46704710B53A
:1004F0000446AFF300802046BDE81040FFF79FBEE2
:10050000002801D0FFF7C0BF7047000010B50021E0
:1005100002A000F017F8012010BD00005349474128
:100520004252543A2041626E6F726D616C20746564
:10053000726D696E6174696F6E00000000487047EB
:100540001801002070B505460C460A2000E06D1C1D
:10055000FFF793FF35B128780028F8D102E0641C3A
:10056000FFF78BFF14B120780028F8D1BDE8704068
:100570000A20FFF782BF00BFFEE7000010B5024867
:1005800000F060FA10BD0000F0000020704710B5C8
:10059000042000F0EDFD10BD72B600BFFEE70000C4
:1005A00070B506460D46144605B104E0562214A166
:1005B00017A0FFF7E3FE04B104E0572210A116A034
:1005C000FFF7DCFE1648008825F8360060782178B1
:1005D00040EA012000B205EBC6014880E078A1782E
:1005E00040EA012000B205EBC601888060792179DC
:1005F00040EA012000B205EBC601C88070BD0000D2
:100600002E2E2F5372632F6D61696E2E63000000D2
:100610006D6F746F7200000064617461000000000F
:100620001C00002010B5024692F82030012B01D0AA
:10063000022B06D1106840690843146860610020ED
:1006400010BD506A40F4802050620120F8E7F0B5F8
:1006500004460D461E4694F8207020688368A868FA
:1006600000B900E000BF012F01D0022F7CD103F0C0
:10067000806030B903F0006018B903F080500028A2
:1006800073D0C3F30161022905D9606A40F4000008
:1006900060620120F0BD012088403060A86860B928
:1006A000B5F800C0E86840EA4C5C206800F5C0700E
:1006B00000EB0110C0F800C00FE0D5E901C040EA2E
:1006C000CC00D5F80CC040EA0C00D4F800C00CF502
:1006D000C07C0CEB011CCCF80000D5F810C02068E1
:1006E00000F5C07000EB0110C0F804C0287D01289F
:1006F0000ED1206800F5C07000EB0110406840F496
:10070000807C206800F5C07000EB0110C0F804C0C8
:10071000D079000692F806C040EA0C4092F805C075
:1007200040EA0C2C10794CEA000C206800F5C070EF
:1007300000EB0110C0F80CC0D078000692F802C09F
:1007400040EA0C4092F801C040EA0C2092F800C048
:1007500040EA0C00D4F800C00CF5C07C0CEB011C86
:10076000CCF80800206801E016E00FE000F5C0704A
:1007700000EB0110006840F0010C206800F5C0702B
:1007800000EB0110C0F800C0002083E7606A40F46D
:100790000010606201207DE7606A40F480206062A2
:1007A000012077E7F0B504460A46216894F8205006
:1007B000012D01D0022D7ED1424901F5007108685A
:1007C00040F001000860086820F47C500860086868
:1007D000566A40EA06200860107D00F01F060120DE
:1007E00000FA06F3C8699843C861A1F50071D069A1
:1007F000C8B9D1F80C029843C1F80C02908880B2B5
:10080000968940EA064601F51070576940F837604E
:10081000108880B2168940EA064601F510705769C3
:1008200000EBC7004660D069012819D1D1F80C024D
:100830001843C1F80C02908880B2168840EA064638
:1008400001F51070576940F83760908980B21689B9
:1008500040EA064601F51070576900EBC700466094
:10086000906928B9D1F804029843C1F8040204E061
:10087000D1F804021843C1F80402106928B9D1F86C
:1008800014029843C1F8140204E0D1F8140218438A
:10089000C1F81402106A012804D1D1F81C021843CF
:1008A000C1F81C02D1F8000220F00100C1F80002DA
:1008B0000020F0BDFFE7606A40F480206062012004
:1008C000F7E7000000640040704770B5044694F8F4
:1008D0002050012D01D0022D7DD151B92068C06872
:1008E00000F0030080B9606A40F4001060620120EB
:1008F00070BD2068006900F0030028B9606A40F408
:10090000001060620120F3E7206800F5D87000EB6A
:100910000110006800F004009060906840B9206801
:1009200000F5D87000EB01100068400D106007E082
:10093000206800F5D87000EB01100068C008506016
:10094000206800F5D87000EB0110006800F002008C
:10095000D060206800F5D87000EB0110406800F00E
:100960000F001061206800F5D87000EB011040689E
:1009700000F47F40000A9061206800F5D87000EB19
:1009800001104068000C5061206800F5D87000EB41
:10099000011080681870206800F5D87000EB011015
:1009A000806800F47F40000A5870206800F5D87015
:1009B00000EB0110806800F47F00000C9870206844
:1009C00000F5D87000EB01108068000ED870206828
:1009D00000F5D87000E02FE000EB0110C06818713E
:1009E000206800F5D87000EB0110C06800F47F406B
:1009F000000A5871206800F5D87000EB0110C0683B
:100A000000F47F00000C9871206800F5D87000EBAE
:100A10000110C068000ED87131B92068C06840F07C
:100A200020002668F06005E02068006940F02000A2
:100A30002668306100205BE7606A40F480206062D5
:100A4000012055E72DE9F05F04460025206846693E
:100A50002068D0F80490206887682068D0F80CA03F
:100A60002068D0F810B02068D0F8188006F0010097
:100A7000002855D007F00100C0B10120216888602E
:100A800007F0020018B1204600F05FFB0EE007F00F
:100A9000040010B145F4006508E007F0080010B14B
:100AA00045F4805502E0204600F04EFB07F48070CC
:100AB000C8B14FF480702168886007F4007018B1E5
:100AC000204600F044FB0EE007F4806010B145F4CE
:100AD000005508E007F4006010B145F4804502E0DD
:100AE000204600F033FB07F48030C8B14FF480306B
:100AF0002168886007F4003018B1204600F029FB17
:100B00000EE007F4802010B145F4004508E007F43A
:100B1000002010B145F4803502E0204600F018FBBB
:100B200006F0080038B10AF0100020B145F4007555
:100B300010202168C86006F0040040B10AF00800E7
:100B400028B108202168C860204600F0A9F906F005
:100B5000020038B12068C06800F0030010B12046E0
:100B600000F0A0F906F0400038B10BF0100020B101
:100B700045F4806510202168086106F0200040B12E
:100B80000BF0080028B1082021680861204600F019
:100B9000A9FA06F0100038B12068006900F00300DF
:100BA00010B1204600F09FFA06F4003040B109F081
:100BB000100028B1102021684860204600F094FA07
:100BC00006F4803040B109F0080028B108202168FF
:100BD0004860204600F0BEFA06F4004088B309F0F1
:100BE000040078B306F4807020B108F0010008B169
:100BF00045F0010506F4007020B108F0020008B1CC
:100C000045F0020506F4806020B108F0040008B148
:100C100045F0040506F40060A0B108F0700088B14A
:100C200008F07000402817D006DC10280BD02028D0
:100C30000CD0302819D10CE0502810D0602814D1E5
:100C400010E01DE019E045F008050FE045F0100543
:100C50000CE045F0200509E045F0400506E045F0D0
:100C6000800503E045F4807500E000BF00BF206808
:100C7000806920F070002168886104202168486044
:100C80002DB1606A284360622046FFF71DFEBDE873
:100C9000F09F70B504460CB9012070BD94F8200097
:100CA00010B9204600F0B0F82068006840F001005C
:100CB0002168086000F078FB05460DE000F074FB49
:100CC000401B0A2808D9606A40F4003060620520A1
:100CD00084F820000120E0E72068406800F001006F
:100CE0000028EBD02068006820F00200216808602E
:100CF00000F05AFB05460DE000F056FB401B0A28A9
:100D000008D9606A40F400306062052084F8200051
:100D10000120C2E72068406800F002000028EBD103
:100D2000207E012806D12068006840F080002168FC
:100D3000086005E02068006820F0800021680860F5
:100D4000607E012806D12068006840F040002168DC
:100D5000086005E02068006820F040002168086015
:100D6000A07E012806D12068006840F0200021689C
:100D7000086005E02068006820F020002168086015
:100D8000E07E012806D12068006820F0100021686C
:100D9000086005E02068006840F0100021680860E5
:100DA000207F012806D12068006840F008002168F3
:100DB000086005E02068006820F0080021680860ED
:100DC000607F012806D12068006840F00400216897
:100DD000086005E02068006820F0040021680860D1
:100DE000D4E9020108432169084361690843616845
:100DF000491E08432168C86100206062012084F810
:100E00002000002049E7000010B586B004461421F8
:100E100001A8FFF7F3FA1F492068884237D100BFC5
:100E2000002000901C48006840F000701A490860DB
:100E30000846006800F00070009000BF00BF00BFCF
:100E40000020009014481038006840F00800124953
:100E5000103908600846006800F00800009000BFE4
:100E600000BF032001900220029000200390032085
:100E700004900920059001A9084800F087F9002294
:100E80001146142000F01AFB142000F007FB06B0F6
:100E900010BD00000064004040380240000C0240D9
:100EA000704700001CB504468849206888426ED10E
:100EB0006B46874A00212046FFF707FD84480068FB
:100EC000A0F20120082823D2DFE800F004234262C8
:100ED00081A0BFDE00207F4908706A467E497D48B8
:100EE0000078FFF75DFB7C487A49097800EBC10088
:100EF00080887A490988081A00EB8000400000B217
:100F000077490880734802784FF4007001F05EF86A
:100F1000D9E001206F4908706A466F496D48007832
:100F2000FFF73EFB6C486B49097800EBC1008088F5
:100F30006A490988081A00EB8000400000B268493D
:100F40000880644802784FF4007001F03FF8BAE07E
:100F50000220604908706A465F495E480078FFF7E2
:100F60001FFB5D485B49097800EBC10080885B4945
:100F70000988081A00EB8000400000B25849088038
:100F8000544802784FF4007001F020F89BE09CE098
:100F90000320504908706A464F494E480078FFF7D1
:100FA000FFFA4D484B49097800EBC10080884B4956
:100FB0000988081A00EB8000400000B24849088008
:100FC000444802784FF4007001F000F87BE0042000
:100FD000404908706A4640493E480078FFF7E0FA09
:100FE0003D483C49097800EBC10080883B490988AD
:100FF000081A00EB8000400000B2394908803548EB
:10100000027840F2FF1000F0E1FF5CE0052031497A
:1010100008706A4630492F480078FFF7C1FA2E4819
:101020002C49097800EBC10080882C490988081AEE
:1010300000EB8000400000B2294908802548027872
:1010400040F2FF1000F0C2FF3DE006202149087089
:101050006A4621491F480078FFF7A2FA1E481D4939
:10106000097800EBC10080881C490988081A00EB48
:101070008000400000B21A4908801648027840F209
:10108000FF1000F0A3FF1EE00720124908706A4617
:10109000114910480078FFF783FA0F480D49097885
:1010A00000EBC10080880D490988081A00EB800018
:1010B000400000B20A4908800648027840F2FF105A
:1010C00000F084FF00BF00BF00BF1CBD00640040F3
:1010D0001C0000200200002038000020000000203A
:1010E0000400002070477047704770B5044694F8BC
:1010F0002000012822D1022084F820002068006806
:1011000020F001002168086000F04EF905460DE06E
:1011100000F04AF9401B0A2808D9606A40F4003000
:101120006062052084F82000012070BD20684068BE
:1011300000F001000028EBD16062F6E7606A40F43D
:10114000002060620120F0E77047704770477047E9
:101150007047704770470000042806D1034909888A
:1011600001F5FA7109B2014A1180704700000020B0
:1011700010B5044604480068204020B102480460CD
:101180002046FFF7E9FF10BD143C0140F8B50246C8
:101190000B460025002400200021E0E0012606FA8D
:1011A00001F51E6806EA0504AC4274D11E7906F00A
:1011B0000306012E04D01E7906F00306022E13D179
:1011C00090684F000326BE40B0434F00DE68BE402B
:1011D00030439060506801268E40B0431E79C6F3BC
:1011E00000168E40304350601E7906F00306032E31
:1011F00009D0D0684F000326BE40B0434F009E6820
:10120000BE403043D0601E7906F00306022E13D193
:10121000CF0802F1200656F827004E07F70E0F26DA
:10122000BE40B0434F07FF0E1E69BE403043CF089B
:1012300002F1200646F8270010684F000326BE4042
:10124000B0431E7906F003064F00BE4030431060E5
:101250005E6806F44036002E1DD000BF00260096C2
:10126000414E366846F480463F4F3E603E46366803
:1012700006F48046009600BF00BF3C4E8F0856F82B
:1012800027008E07370F0F26BE40B043384EB242BC
:1012900002D100262EE061E0364EB24201D1012695
:1012A00028E0354EB24201D1022623E0334EB2424D
:1012B00001D103261EE0324EB24201D1042619E0CC
:1012C000304EB24201D1052614E02F4EB24201D178
:1012D00006260FE02D4EB24201D107260AE02C4E21
:1012E000B24201D1082605E02A4EB24201D10926B8
:1012F00000E00A268F073F0FBE4030431B4E8F0889
:1013000046F82700244E3068A0435E6806F4801635
:1013100006B12043204E3060361D3068A0435E6821
:1013200006F4001606B120431B4E361D30601A4EDF
:10133000361F3068A0435E6806F4003606B12043CD
:10134000154E361F3060361F3068A0435E6806F4C5
:10135000803606B12043104E083E3060491C1029EB
:10136000FFF41CAFF8BD00004438024008380140CB
:10137000000002400004024000080240000C02404D
:10138000001002400014024000180240001C0240FD
:101390000020024000240240083C01400AB1816163
:1013A00001E00B048361704701480068704700004A
:1013B0000C000020034800680349097808440149EB
:1013C000086070470C0000201400002010B50D4884
:1013D000006840F400700B4908600846006840F45B
:1013E000806008600846006840F480700860032050
:1013F00000F0A2F80F2000F007F800F02BF8002012
:1014000010BD0000003C024070B504460E48007854
:101410004FF47A71B1FBF0F00C490968B1FBF0F5BB
:10142000284600F04BFC08B1012070BD102C07D2FB
:1014300000222146501E00F041F80548046001E0FA
:101440000120F2E70020F0E714000020180000203F
:101450001000002008B500BF002000900E48006872
:1014600040F480400C4908600846006800F4804061
:10147000009000BF00BF00BF00200090081F006860
:1014800040F08050091F08600846006800F0805056
:10149000009000BF00BF08BD443802400146084626
:1014A000002809DB00F01F0301229A4043099B003A
:1014B00003F1E023C3F8002100BF70472DE9F05F7E
:1014C00080460D461646002700F064FD0746394663
:1014D0002A46334601F00700C0F1070ABAF1040FAB
:1014E00002D94FF0040A01E0C0F1070AD14600F129
:1014F000040ABAF1070F02D24FF0000A01E0A0F18E
:10150000030AD4464FF0010A0AFA09FAAAF1010ABD
:101510000AEA020A0AFA0CFA4FF0010B0BFA0CFB6A
:10152000ABF1010B0BEA030B4AEA0B0421464046E0
:1015300000F038FDBDE8F09F00BF00F00702064B49
:1015400019684FF6FF031940044B0B4343EA02218D
:10155000014B196000BF70470CED00E00000FA0578
:1015600038B5002400BF002000901D48006840F0FE
:1015700080501B4908600846006800F080500090C9
:1015800000BF00BF012017490864FFF70DFF0446A4
:1015900007E0FFF709FF001BB0F57A7F01D90320B0
:1015A00038BD1148406800F48030B0F5803FF0D17C
:1015B00001200C494864FFF7F7FE044607E0FFF7F7
:1015C000F3FE001BB0F57A7F01D90320E8E7064857
:1015D000406800F40030B0F5003FF0D10020DFE7B4
:1015E0004038024000000E420070004070B50446D2
:1015F0000D460CB9012070BD5848006800F00F007E
:10160000A84209D255490D700846006800F00F0045
:10161000A84201D00120EEE7207800F00200022865
:101620001DD1207800F00400042805D14C48006842
:1016300040F4E0504A490860207800F0080008288B
:1016400005D14748006840F4604045490860444877
:10165000006820F0F000A168084341490860207844
:1016600000F00100A8B36068012807D13C480838A1
:101670000068C0F34040B8B90120BCE760680228A8
:1016800002D06068032807D1354808380068C0F3E5
:10169000406048B90120AEE7314808380068C0F31F
:1016A000400008B90120A6E72D48006820F003009B
:1016B000616808432A490860FFF776FE064609E09C
:1016C000FFF772FE801B41F28831884202D9032065
:1016D00091E707E02248006800F00C006168B0EB79
:1016E000810FEDD11D48006800F00F00A84209D914
:1016F0001A490D700846006800F00F00A84201D09A
:10170000012078E7207800F00400042807D114486D
:10171000006820F4E050E16808431149086020782F
:1017200000F00800082808D10D48006820F4604047
:10173000216940EAC1000A49086000F019F8084927
:101740000968C1F30311074A515CC84006490860A3
:1017500006480068FFF758FE00204CE7003C0240B6
:1017600008380240DA20000818000020100000208D
:101770002DE9F047002400250026A14625480068F1
:1017800000F00C0020B1042805D008283AD105E06B
:10179000DFF8849039E0DFF8849036E01D48001FC0
:1017A000006800F03F041B48001F006800F4800040
:1017B00078B11A481749091F0968C1F38811A0FBBD
:1017C00001700146224600233846FEF75FFD0546BC
:1017D0000EE011480F49091F0968C1F38811A0FBE9
:1017E00001700146224600233846FEF74FFD0546AC
:1017F0000848001F0068C0F30140401C4600B5FBCC
:10180000F6F902E0DFF8109000BF00BF4846BDE8DF
:10181000F0870000083802400024F400001BB700E5
:10182000F8B504460CB90120F8BD207800F001009D
:10183000002874D0F948006800F00C0004280DD08E
:10184000F648006800F00C00082813D1F348001F88
:10185000006800F48000B0F5800F0BD1EF48083825
:101860000068C0F34040002859D06068002856D175
:101870000120D9E700BF6068B0F5803F08D1E74894
:101880000838006840F48030E449083908601EE0F8
:101890006068B0F5A02F0DD1E0480838006840F42A
:1018A0008020DE49083908600846006840F480302E
:1018B00008600CE0D9480838006820F48030D74927
:1018C000083908600846006820F48020086000BFDE
:1018D000606890B1FFF768FD054606E0FFF764FD1C
:1018E000401B642801D903209EE7CC4808380068D3
:1018F000C0F340400028F1D011E0FFF755FD054648
:1019000006E0FFF751FD401B642801D903208BE757
:10191000C24808380068C0F340400028F1D1207860
:1019200000F0020002285FD1BC48006800F00C0003
:1019300058B1BA48006800F00C0008281CD1B7481C
:10194000001F006800F48000B0B9B448083800688F
:10195000C0F3400020B1E068012801D0012063E716
:10196000AE480838006820F0F800216940EAC1005C
:10197000AA490839086037E0E06800B30120A849A7
:101980000860FFF711FD054606E0FFF70DFD401B5F
:10199000022801D9032047E7A04808380068C0F3AF
:1019A00040000028F1D09D480838006820F0F80079
:1019B000216940EAC10099490839086014E0002013
:1019C00097490860FFF7F0FC054606E0FFF7ECFCDE
:1019D000401B022801D9032026E7904808380068F8
:1019E000C0F340000028F1D1207800F0080008285A
:1019F0002CD16069A8B101208A490860FFF7D4FCA6
:101A0000054606E0FFF7D0FC401B022801D9032061
:101A10000AE782486C300068C0F340000028F1D02B
:101A200014E000207F490860FFF7BEFC054606E091
:101A3000FFF7BAFC401B022801D90320F4E67748DF
:101A40006C300068C0F340000028F1D1207800F02D
:101A50000400042870D1002770483830006800F076
:101A6000805090B900BF002000906C48383000686A
:101A700040F080506949383108600846006800F03D
:101A80008050009000BF00BF01276748006800F445
:101A90008070B0B96448006840F4807062490860A2
:101AA000FFF782FC054606E0FFF77EFC401B02289C
:101AB00001D90320B8E65C48006800F48070002873
:101AC000F2D000BFA068012808D1544868300068EF
:101AD00040F001005149683108601DE0A068052808
:101AE0000DD14E486830006840F004004B49683121
:101AF00008600846006840F0010008600CE04748B4
:101B00006830006820F001004449683108600846E8
:101B1000006820F00400086000BFA068A8B1FFF7CB
:101B200043FC054609E0FFF73FFC401B41F28831CA
:101B3000884202D9032077E626E0384868300068FA
:101B4000C0F340000028EED013E0FFF72DFC05465F
:101B500008E0FFF729FC401B41F28831884201D997
:101B6000032061E62D4868300068C0F3400000287B
:101B7000EFD1012F07D129483830006820F080507C
:101B800026493831086000BFA069002845D02348A5
:101B9000006800F00C0008285DD0A069022845D13B
:101BA00000201F490866FFF7FFFB054606E0FFF728
:101BB000FBFB401B022801D9032035E617480838F3
:101BC0000068C0F340600028F1D1D4E90701084360
:101BD000616A40EA81110122A06AC2EB500041EA29
:101BE00000412C20005D41EA00600C49091F08609B
:101BF00001200B490866FFF7D7FB054606E0FFF713
:101C0000D3FB401B022801D903200DE60348083806
:101C10000068C0F340600028F1D049E00838024075
:101C200000004742800E47420070004000202149DA
:101C30000866FFF7B9FB054606E0FFF7B5FB401B5A
:101C4000022801D90320EFE51B480068C0F340607B
:101C50000028F2D12CE0A069012800D1E4E5164863
:101C6000001D0668A069012820D006F48001E06903
:101C700081421BD106F03F01206A814216D147F60E
:101C8000C0703040616AB0EB811F0FD106F4403163
:101C90000122A06AC2EB5000B1EB004F06D106F062
:101CA00070612C20005DB1EB006F01D00120BBE51D
:101CB0000020B9E5000047420038024070B50446F4
:101CC0002546681EB0F1807F01D301200FE0681E19
:101CD0004FF0E02148610F214FF0FF3000F062F932
:101CE00000204FF0E021886107200861002070BDCE
:101CF00000BFFEE700B58BB01B481C4908600520FB
:101D00004860002119488160C1604FF400310161D1
:101D1000490141610021017601214176817600214E
:101D2000C17601774177FEF7B4FF08B1FEF734FCC6
:101D300000200690012009900020079001200890C3
:101D400000200190029003900490059001A907489B
:101D5000FEF728FD02210548FEF764FC0348FFF763
:101D6000C4F90BB000BD000000640040F00000208A
:101D700000B587B0142102A8FEF740FB00BF002089
:101D800001904648006840F0010044490860084658
:101D9000006800F00100019000BF00BF00BF0020FC
:101DA00001900846006840F0080008600846006896
:101DB00000F00800019000BF00BF00BF00200190AC
:101DC0000846006840F0040008600846006800F01B
:101DD0000400019000BF00BF00BF00200190084632
:101DE000006840F0800008600846006800F080004D
:101DF000019000BF00BF00BF0020019008460068AE
:101E000040F0020008600846006800F002000190FF
:101E100000BF00BF00BF002001900846006840F0EE
:101E2000400008600846006800F04000019000BFD4
:101E300000BF012220211A48FFF7B0FA0022022138
:101E40001848FFF7ABFA20200290012003900020F1
:101E50000490059002A91248FFF798F90420029017
:101E60004FF4881003900020049002A90E48FFF759
:101E70008DF902200290012003900020049005902B
:101E800002A90848FFF782F9002211460820FFF74F
:101E900015FB0820FFF702FB07B000BD30380240F9
:101EA000001C0240001802400004024000BFFEE790
:101EB00000BFFEE77047704710B5FFF77BFA10BD13
:101EC00000B593B0302107A8FEF798FA142102A8B4
:101ED000FEF794FA00BF002001902648006840F009
:101EE0008050244908600846006800F08050019046
:101EF00000BF00BF00BF002001901F48006840F4F1
:101F000040401D4908600846006800F440400190C8
:101F100000BF00BF012007900004089002200D9030
:101F200041050E9106210F91B421109102211191CA
:101F30000421129107A8FFF773FC08B1FEF72CFBF0
:101F4000FFF70EFB08B1FEF727FB0F2002900220DF
:101F50000390002004904FF4A05005904FF480505F
:101F60000690052102A8FFF741FB08B1FEF714FB1C
:101F700013B000BD403802400070004003480068C4
:101F800040F47000014908607047000088ED00E0EF
:101F900000BFFEE702480068C0F30220704700005F
:101FA0000CED00E010B5002804DB0A07130E054A0B
:101FB000135406E00A07140E034A00F00F031B1F18
:101FC000D45410BD00E400E018ED00E070B586B018
:101FD00006460C46154601200590042D28DA35B139
:101FE000012D0CD0022D12D0032D20D117E0208816
:101FF000000A8DF80C0020788DF80D0017E020887D
:10200000000A8DF80E0020788DF80F000FE0208870
:10201000000A8DF8100020788DF8110007E0208864
:10202000000A8DF8120020788DF8130000BF29E017
:10203000042D06D0052D0CD0062D12D0072D20D151
:1020400017E02088000A8DF8040020788DF805003C
:1020500017E02088000A8DF8060020788DF8070028
:102060000FE02088000A8DF8080020788DF809001C
:1020700007E02088000A8DF80A0020788DF80B0010
:1020800000BF00BF0B48066008200A490861002015
:102090008860C860042D05DA05AB03AA0648FEF780
:1020A000D6FA05E005AB01AA02490348FEF7CFFACC
:1020B00006B070BDD8000020F0000020FFF786F9C0
:1020C000FFF7FEFEFFF754FEFFF714FE00BFFEE72A
:1020D0004FF04070E1EE100A704700000000000071
:1020E00000000102030406070809000000000102C5
:1020F0000304000014210008000000201C00000060
:10210000E8010008302100081C0000205C070000E6
:1021100004020008000000000000000000000000B1
:102120000000000010000000010000000024F40086
:04000005080001AD41
:00000001FF
